:020000040800F2
:10000000F00A0020752800083D0200083F020008A1
:1000100043020008470200084B02000800000000ED
:100020000000000000000000000000004F02000877
:100030005102000800000000530200088D2800084B
:100040008F2800088F2800088F2800088F280008B4
:100050008F2800088F2800088F2800088F280008A4
:100060008F2800088F2800088F2800088F28000894
:100070008F2800088F2800088F2800088F28000884
:100080008F2800088F2800088F2800088F28000874
:100090008F2800088F2800088F2800088F28000864
:1000A0008F2800088F2800088F2800088F28000854
:1000B0008F2800088F2800088F2800088F28000844
:1000C0008F2800088F2800088F2800088F28000834
:1000D0008F2800088F2800088F2800088F28000824
:1000E0008F2800088F2800088F2800088F28000814
:1000F0008F2800088F2800088F2800088F28000804
:100100008F2800088F2800088F2800088F280008F3
:100110008F2800088F2800088F280008C3010008D6
:100120008F2800088F2800088F2800088F280008D3
:100130008F2800088F2800088F2800088F280008C3
:100140008F2800088F2800088F2800088F280008B3
:100150008F2800088F2800088F280008E101000878
:100160008F2800088F2800088F2800088F28000893
:100170008F2800088F2800088F2800088F28000883
:100180008F2800088F280008DFF80CD002F0C0FE8E
:10019000004800479D010008F00A0020B42000F04C
:1001A00059F84FF4E13000F0D7F800F054F94FF46B
:1001B00080721949194800F099FC00F016FB00BF45
:1001C000FEE710B50121164801F067FC012802D1B5
:1001D000124800F01DFC0121114801F06FFC10BD18
:1001E00010B540F225510F4802F0FDFA40B10D481C
:1001F00002F037FAC4B22146084800F0A7FC00BF5D
:1002000010BD0948704709487047094870470948B8
:100210007047094870470000B8000020A000002087
:100220000014004000140140000000206400002081
:10023000780000208C00002004000020704700BFE0
:10024000FEE700BFFEE700BFFEE700BFFEE7704726
:100250007047704710B504466FF0040000F09AFE36
:10026000E11704EB5171C1F3C701394A117010460F
:10027000007800EB4001C1EBC0104FF6FF7101EABE
:10028000C0003449088010BD0146314A12784A4303
:100290004FF0E0235A6100229A611A46126942F037
:1002A00001021A6100BF4FF0E022106900F0010264
:1002B0001AB100F48032002AF5D04FF0E022126922
:1002C00022F001024FF0E0231A6100229A61704788
:1002D0000146204A12884A434FF0E0235A61002227
:1002E0009A611A46126942F001021A6100BF4FF08A
:1002F000E022106900F001021AB100F48032002AF5
:10030000F5D04FF0E022126922F001024FF0E02315
:100310001A6100229A61704770B504464FF4077065
:1003200094FBF0F0C6B24FF4077094FBF0F100FBC1
:10033000114085B205E04FF40770FFF7C9FF701E4A
:10034000C6B2002EF7D115B12846FFF7C1FF70BD28
:10035000100000201200002010B588B004460121D2
:10036000402001F00DFE0121202001F04DFE082269
:1003700009214F4802F03BF808220E214C4802F0B8
:1003800036F84FF48440069002208DF81C008DF85A
:100390001D0000208DF81E0001208DF81F0006A909
:1003A000434801F099FF02940020ADF80C00ADF82D
:1003B0000E00ADF81000ADF814000C20ADF81200DE
:1003C00002A93C4802F096F801213A4802F01AF9D5
:1003D0004021384802F0FEF9012240F2255135480B
:1003E00002F0C6F947208DF8040003208DF80500BF
:1003F0008DF8060001208DF8070001A800F07DFDB2
:1004000008B010BD00BF2B49098801F04001002948
:10041000F9D02849091D088070470FB410B503A80A
:1004200025490860084602682448029902F010FE37
:1004300023490880002020490860002204E01F4969
:10044000885CFFF7DFFF521C1D4800888242F6DB04
:1004500010BC5DF814FB1FB50121202001F0C3FD85
:100460006420029040F25130ADF804000020ADF855
:100470000600ADF80C0001A9124800F056FE01225A
:100480001146104801F0F2FA01210E4800F0D6FEA4
:1004900037208DF8000001208DF8010000208DF834
:1004A000020001208DF80300684600F026FD1FBD04
:1004B000001802400014014014000020B801002080
:1004C000180000200014004030B50124FA4D2C70B3
:1004D0000024FA4D2C7030BD2DE9F04106468846C7
:1004E00015462820F64908701020487006EB460192
:1004F000F44A02EB810002F0E9FAF1498870CD700C
:1005000008468078001D042101FB0500471C384681
:1005100003F046FA044624B9204603F019FABDE870
:10052000F081E74800682060E548827806EB4600E5
:10053000E44B03EB8001201D02F0B6FAAA00E0496B
:100540008B78211D5818414602F0AEFA2921781EF9
:1005500021543A462146DC4800F012FB204603F0C5
:10056000F7F900BFDBE72DE9F04107460D462820EB
:10057000D34908710F21D24841718571A800061D29
:10058000304603F00DFA044624B9204603F0E0F9A2
:10059000BDE8F081CA48818821808079A070AA00D6
:1005A0003946E01C02F080FA2921701E215432469F
:1005B0002146C54800F0E4FA204603F0C9F900BF1F
:1005C000E6E72DE9F84380460C4616461F46FFF73E
:1005D00018FE05462CB1012E03D194ED000A85EDDD
:1005E000000A47B195ED000A8DED000A0121684629
:1005F000FFF7B9FF09E095ED000A8DED000A012231
:1006000069464046FFF768FF00BFBDE8F8832DE963
:10061000F04186B080460D4616461F46FFF7F3FDB3
:100620000446ADB1052E13D195ED000A84ED000A04
:1006300095ED010A84ED010A95ED020A84ED020AA6
:1006400095ED030A84ED040A95ED040A84ED030A8E
:1006500087B194ED000A8DED030A94ED010A8DED4A
:10066000040A94ED020A8DED050A032103A8FFF7A1
:100670007AFF19E094ED000A8DED010A94ED010A6C
:100680008DED020A94ED020A8DED030A94ED040A41
:100690008DED040A94ED030A8DED050A052201A9EA
:1006A0004046FFF719FF00BF06B0BDE8F0812DE915
:1006B000F0438BB081460C4617469846FFF7A7FDDE
:1006C0000546FFF7A2FD06464CB30A2F27D194ED4D
:1006D000000A85ED000A94ED010A85ED010A94ED0A
:1006E000020A85ED020A94ED030A85ED040A94EDF1
:1006F000040A85ED030A94ED050A86ED000A94EDDF
:10070000060A86ED010A94ED070A86ED020A94EDC9
:10071000080A86ED040A94ED090A86ED030AB8F189
:10072000000F0CD095ED000A8DED090A96ED000A38
:100730008DED0A0A022109A8FFF715FF2DE095EDBE
:10074000000A8DED010A95ED010A8DED020A95ED85
:10075000020A8DED030A95ED040A8DED040A95ED6C
:10076000030A8DED050A96ED000A8DED060A96ED59
:10077000010A8DED070A96ED020A8DED080A96ED45
:10078000040A8DED090A96ED030A8DED0A0A0A2284
:1007900001A94846FFF7A0FE00BF0BB0BDE8F083FB
:1007A0002DE9F04180460C4616461F46FFF731FD05
:1007B00005466CB1032E0BD194ED000A85ED000ABD
:1007C00094ED010A85ED010A94ED020A85ED020A15
:1007D00027B103212846FFF7C6FE04E0032229467D
:1007E0004046FFF779FEBDE8F08110B54FF4007286
:1007F0003649354800F07AF900203149C86008616F
:10080000886010BD70B5304800F047FB04460A2CE4
:100810000EDB0A222E492C4800F052FA002504E093
:100820002B49485DFFF7EEFD6D1C0A2DF8DB0DE04E
:1008300022462749244800F043FA002504E02449D1
:10084000485DFFF7DFFD6D1CA542F8DB70BD2DE9AB
:10085000F04780464FF0000900BF19488068B0B9E2
:10086000404600F01AFB05460BE0404600F014FA43
:100870000446282C05D112488068401C1049886025
:1008800003E0281EA5F10105EFD100BF00BF0C4811
:100890008068012821D1404600F0FFFA00281CDDC5
:1008A000404600F0F9F9102814D105488068401C32
:1008B0000349886011E00000300000203100002072
:1008C000D00400200C3A0008B8020020D00200201A
:1008D000E40400204FF001098BE07D488068022885
:1008E00013D1404600F0D9FA02280EDB404600F052
:1008F000D3F97749C860404600F0CEF980007449CA
:10090000086108468068801C8860714880680428F7
:100910006ED1404600F0C1FA6D49C9686C4A12694F
:100920001144884264DD6A49C968481C012102F00B
:10093000E2F805466649086903F032F8064605B153
:1009400016B94FF0020954E061482946C268404692
:1009500000F0B6F95E4831460269404600F0B0F951
:10096000404600F099F9292839D100242CE004EB05
:100970004400584A02EB8001284602F0AEF810BB52
:100980005348006958B954B153480078A04203D184
:100990000020514908700FE04F490C700CE04C48A2
:1009A0000769F81707EB907082104C4850F824C084
:1009B000002331462046E047284602F0C9FF304672
:1009C00002F0C6FF16E0641C052CD0DB284602F0BE
:1009D000BFFF304602F0BCFF4FF0030909E0284694
:1009E00002F0B6FF304602F0B3FF4FF0040900E01A
:1009F00000BF00BF00203649C860086188604046DB
:100A000000F04BFA002800DD27E74846BDE8F087F4
:100A100070B505463248007880B3324801880088B6
:100A2000401C304A10800A2091FBF0F200FB1210AB
:100A300020BB2C4800880A2190FBF1F0401CC4B276
:100A400004EB4401234A02EB810002F03FF850B16D
:100A5000052C08DA214850F8246000231A4619466C
:100A60002046B04709E000201E4908801C49087054
:100A7000002211461046FFF72FFD00BF1A480088DC
:100A80000A2190FBF1F201FB120068B912480078CC
:100A900050B112481049097850F821400123002232
:100AA00011460D480078A0470F480088142190FB9C
:100AB000F1F201FB120010B92846FFF7C8FEFFF75C
:100AC000A1FE09480088401C0749088070BD00004D
:100AD000D00400200C3A0008310000201C00002047
:100AE000300000203400002032000020034619604E
:100AF0008818401E58609A600020D86019615961BA
:100B0000704770B5044600250026182002F048FF03
:100B100005460DB9002070BD204602F041FF064693
:100B200026B9284602F014FF0020F4E72246314699
:100B30002846FFF7DBFF2846EDE710B5044620689E
:100B400002F006FF204602F003FF10BD0246906847
:100B500000B912E053685069984201D91068506199
:100B6000506901705069401C50619068401E90604F
:100B7000D068401CD060002070474FF0FF30FBE78A
:100B80002DE9F047044688461546B8F1000F00D11C
:100B900039E0A06800B936E061686069884201D92F
:100BA00020686061A068A84201DD284600E0A068D6
:100BB000054661696068401A461CAE4209DB2E4654
:100BC00032464146606901F06FFF60693044606100
:100BD0000FE0A5EB060932464146606901F064FF6B
:100BE00008EB06014A46206801F05EFF2068484491
:100BF0006061A068401BA060E0682844E0602F4668
:100C00003846BDE8F0874FF0FF30FAE72DE9F047AE
:100C1000044688461546B8F1000F03D14FF0FF3067
:100C2000BDE8F087A06808B90020F9E7616860694D
:100C3000884201D920686061A068A84201DD284689
:100C400000E0A068054661696068401A461CAE4233
:100C500009DB2E4632464146606901F025FF606996
:100C6000304460610FE0A5EB0609324641466069F9
:100C700001F01AFF08EB06014A46206801F014FF54
:100C8000206848446061A068401BA060E068284478
:100C9000E0602F463846C3E7014600204B680A69EA
:100CA0009A4201D90A680A610A6910780A69521CD5
:100CB0000A618A68521C8A60CA68521ECA607047FC
:100CC0002DE9F04704460F46154607B938E0E068BD
:100CD00000B935E061682069884201D92068206147
:100CE000E068A84201DD284600E0E0680546216989
:100CF0006068401A461CAE4209DB2E463246384632
:100D0000216901F0D1FE2069304420610EE0A5EB9D
:100D1000060932463846216901F0C6FEB8194A462E
:100D2000216801F0C1FE206848442061A068284481
:100D3000A060E068401BE060A8464046BDE8F08740
:100D40004FF0FF30FAE72DE9F04704460F4615460D
:100D50001FB94FF0FF30BDE8F087E06808B9002008
:100D6000F9E761682069884201D920682061E0685C
:100D7000A84201DD284600E0E06805462169606878
:100D8000401A461CAE4209DB2E46324638462169DF
:100D900001F08AFE2069304420610EE0A5EB0609CF
:100DA00032463846216901F07FFEB8194A4621686B
:100DB00001F07AFE206848442061A0682844A060C1
:100DC000E068401BE060A8464046C4E710B5024614
:100DD0000B46D068984201DA002010BD1069C11896
:100DE0005068884204D2D2E900040C1B2044411E02
:100DF0000878F2E72DE9F05F0446894616461D465D
:100E0000B9F1000F00D137E0E06800B934E0E068E4
:100E1000B04200DC30E0206987196068B84204D233
:100E2000D4E90001791A0844471EE068801BA842F3
:100E300001DD284601E0E068801B05466068C01BB4
:100E400000F10108A84506DBA84642463946484657
:100E500001F02AFE0CE0A5EB080B42463946484655
:100E600001F022FE09EB08005A46216801F01CFE41
:100E7000AA465046BDE8F09F4FF0FF30FAE7014622
:100E8000C86808B9012070470020FCE7014688685F
:100E900008B9012070470020FCE70146C868704788
:100EA000014688687047D0E90021891A491C816091
:100EB0000021C1600168016101684161704710B59E
:100EC0000246D068884200DAD16810694318506839
:100ED000984204D2D2E900041C1B2044431E136133
:100EE000906808449060D068401AD060084610BDF1
:100EF00032490143324A1160704770B50021002326
:100F00000F22C4781CB32E4C246804F4E064C4F5AA
:100F1000E064C4F30721C1F10404E3B20A41447858
:100F20009C40E1B28478144021430C07210E254CEB
:100F300005786155047804F01F050124AC4005785C
:100F40006D11AD0005F1E025C5F8004109E0047818
:100F500004F01F050124AC401B4D0678761145F8BE
:100F6000264070BD194A0A400243154B1B1F1A60E8
:100F7000704739B1124A121D12680243104B1B1DF3
:100F80001A6006E00E4A121D126882430C4B1B1DAC
:100F90001A607047042808D14FF0E021096941F038
:100FA00004014FF0E022116107E04FF0E0210969F0
:100FB00021F004014FF0E022116170470000FA05B2
:100FC0000CED00E000E400E080E100E080FFFF1FA6
:100FD00010B50446FE48844208D10121084601F0BC
:100FE0007BF80021012001F077F89DE0B4F1804FFB
:100FF00008D10121084601F05EF80021012001F02E
:101000005AF891E0F348844208D10121022001F00E
:1010100052F80021022001F04EF885E0EE488442AB
:1010200008D10121042001F046F80021042001F03C
:1010300042F879E0E948844208D10121082001F012
:101040003AF80021082001F036F86DE0E4488442C7
:1010500008D10121102001F02EF80021102001F00C
:101060002AF861E0DF48844208D10121202001F004
:1010700022F80021202001F01EF855E0DA488442D1
:1010800008D10121022001F027F80021022001F0FF
:1010900023F849E0D548844209D10121080401F030
:1010A0001BF800214FF4803001F016F83CE0D048E6
:1010B000844209D10121480401F00EF800214FF4C7
:1010C000003001F009F82FE0CA48844209D101211B
:1010D000880401F001F800214FF4802000F0FCFFAB
:1010E00022E0C548844208D10121402000F0E3FFFE
:1010F0000021402000F0DFFF16E0C048844208D104
:101100000121802000F0D7FF0021802000F0D3FFD4
:101110000AE0BB48844207D10121801500F0CBFFD3
:101120000021A01500F0C7FF10BD00220288A84BC7
:1011300098420ED0AC4B98420BD0B0F1804F08D003
:10114000A44B984205D0A44B984202D0A34B98429E
:1011500004D14FF68F731A404B881A43A04B984224
:1011600007D0A04B984204D04FF6FF431A400B899A
:101170001A4302804B68C3620B880385944B9842E4
:1011800002D0994B984201D18B7A03860123838246
:1011900070474FF0FF3141600021018001814180A3
:1011A000817270470185828270470A46002101885A
:1011B0004FF68F73194011430180704741627047A9
:1011C000C16270470146486A70470146088D704702
:1011D00021B1028842F00202028004E002884FF648
:1011E000FD731A400280704721B1028842F0040268
:1011F000028004E002884FF6FB731A4002807047B9
:1012000021B1028842F08002028004E002884FF699
:101210007F731A400280704702884FF6F7731A40B6
:10122000028002880A430280704702884FF6FF431B
:101230001A40028002880A430280704721B1028866
:1012400042F00102028004E002884FF6FE731A4069
:101250000280704770B5002400220023058C4FF6F1
:10126000FE7635400584028C8388048B4FF68F759B
:101270002C40B51E2C400D882C43751E2A408D89AC
:101280002A434D882A43524DA84202D0564DA842C7
:1012900013D14FF6F7752A40CD892A434FF6FB75D7
:1012A0002A408D882A434FF6FF652B404FF6FF55A5
:1012B0002B400D8A2B434D8A2B43838004838D68FA
:1012C0004563028470BD70B5002400220023058CA4
:1012D0004FF6EF7635400584028C8388048B48F600
:1012E000FF752C404FF6FF452C400D884FF6FF76DA
:1012F00006EA05252C434FF6DF752A408D8906EA5C
:1013000005152A434D8806EA05152A43304DA842A3
:1013100002D0354DA8421DD14FF67F752A40CD89A8
:101320004FF6FF7606EA05152A434FF6BF752A40A9
:101330008D8806EA05152A434FF6FF352B404FF2FC
:10134000FF752B400D8A06EA85052B434D8A06EA78
:1013500085052B43838004838D688563028470BD7B
:1013600070B5002400220023058C4FF6FF6635403F
:101370000584028C8388848B4FF68F752C404FF642
:10138000FC752C400D882C434FF6FF552A408D8963
:101390004FF6FF7606EA05252A434D8806EA05251D
:1013A0002A430B4DA84202D00F4DA84238D14FF22C
:1013B000FF752A40CD894FF6FF7606EA05252A43B8
:1013C0004FF6FF352A408D8806EA05252A4319E0A5
:1013D000000001400004004000080040000C0040F4
:1013E0000010004000140040000401400040014093
:1013F000004401400048014000180040001C00402B
:10140000002000404EF6FF752B404DF6FF752B4037
:101410000D8A06EA05152B434D8A06EA05152B436E
:10142000838084838D68C563028470BD70B500229B
:1014300000230024058C4EF6FF7635400584038C8E
:101440008488828B48F6FF752A404FF6FF452A4074
:101450000D884FF6FF7606EA05252A434DF6FF75FF
:101460002B408D8906EA05352B434D8806EA053564
:101470002B43FE4DA84202D0FD4DA84208D14BF6A9
:10148000FF752C400D8A4FF6FF7606EA85152C4332
:10149000848082838D680564038470BD002101808F
:1014A0004180818081608181C18101824182704758
:1014B00070B50346002000241846183001258D40E1
:1014C000ACB21D8CA5431D8409B108290AD100EBDB
:1014D000610005684FF68F76354005600568154355
:1014E00005600FE00D1FC5F34E052844056848F65A
:1014F000FF763540056005684FF6FF7606EA02265E
:101500003543056070BD4163704781637047C163B7
:101510007047016470470A460021018B4FF68F73B4
:1015200019401143018370470A460021018B48F698
:10153000FF7319404FF6FF7303EA02231943018337
:1015400070470A460021818B4FF68F731940114373
:10155000818370470A460021818B48F6FF7319404A
:101560004FF6FF7303EA02231943818370470A464B
:101570000021018B4FF6F773194011430183704727
:101580000A460021018B4FF2FF7319404FF6FF739B
:1015900003EA02231943018370470A460021818B25
:1015A0004FF6F77319401143818370470A460021B3
:1015B000818B4FF2FF7319404FF6FF7303EA02234A
:1015C0001943818370470A460021018B4FF6FB7354
:1015D00019401143018370470A460021018B4FF6E1
:1015E000FF3319404FF6FF7303EA022319430183C7
:1015F00070470A460021818B4FF6FB731940114357
:10160000818370470A460021818B4FF6FF331940D2
:101610004FF6FF7303EA02231943818370470A469A
:101620000021018B4FF67F731940114301837047EE
:101630000A460021018BC1F30E014FF6FF7303EA46
:1016400002231943018370470A460021818B4FF61C
:101650007F7319401143818370470A460021818BB3
:10166000C1F30E014FF6FF7303EA0223194381838E
:1016700070470A460021018C4FF6FD731940114353
:10168000018470470A460021018C4FF6F773194018
:101690001143018470470A460021018C4FF6DF7325
:1016A00019404FF6FF7303EA021319430184704790
:1016B0000A460021018C4FF67F7319404FF6FF73E5
:1016C00003EA02131943018470470A460021018C82
:1016D0004FF6FF5319404FF6FF7303EA02231943F5
:1016E000018470470A460021018C4FF2FF731940B4
:1016F0004FF6FF7303EA02231943018470470A4639
:101700000021018C4DF6FF7319404FF6FF7303EA79
:10171000023319430184704730B5002301248C4003
:10172000A3B2048C9C430484048C02FA01F5ADB28C
:101730002C43048430BD30B5002304248C40A3B274
:10174000048C9C430484048C02FA01F5ADB22C4352
:10175000048430BD828B4FF2FF331A408283828B28
:101760004FF6FF7303EA01231A4382837047F0B5F3
:101770000C461546002100220026078C4EF6FF7C01
:1017800007EA0C070784818B028C4FF6FF7707EA84
:10179000043640F6FF4739404FF6FF7707EA052742
:1017A00039434FF6FF7707EA0337394345F6FF77AA
:1017B0003A4046F480573A4381830284F0BD828BDD
:1017C0004FF6F3731A408283828B0A4382837047F9
:1017D000F0B50C461546002100220026078C4FF676
:1017E000FF6C07EA0C070784818B028C4FF6FF77AA
:1017F00007EA04264FF60C7739404FF6FF7707EAE1
:1018000003172F4339434FF2FF573A4046F480778E
:101810003A4381830284F0BD028B4FF2FF331A40BA
:101820000283028B4FF6FF7303EA01231A430283FC
:101830007047F0B50C461546002100220026078CA3
:101840004FF6EF7C07EA0C070784018B028C4FF6FA
:10185000FF7707EA041640F6FF4739404FF6FF7757
:1018600007EA033739434FF6FF7703E000000140F2
:101870000004014007EA052739434FF65F773A40F5
:1018800046F010073A4301830284F0BD028B4FF605
:10189000F3731A400283028B0A4302837047F0B548
:1018A0000C46154600210022068C4FF6FE773E407E
:1018B0000684018B028C4FF60C7631407E1C06EAC2
:1018C00003162E4331434FF6F576324044F00106BD
:1018D000324301830284F0BD70B505460C46208872
:1018E00050B92389A28861882846FFF7D8FFE1888C
:1018F0002846FFF7CBFF25E0208804280AD123895A
:10190000A28861882846FFF794FFE1882846FFF700
:1019100083FF17E0208808280AD12389A2886188DC
:101920002846FFF755FFE1882846FFF748FF09E002
:101930002389A28861882846FFF719FFE188284695
:10194000FFF708FF70BD00210180418001218180E7
:101950000021C180018170472DE9F04105460C4608
:1019600000260127608808B9022600E00026A0882A
:10197000012801D1022700E001272088A0B923898E
:10198000A28861882846FFF78AFFE1882846FFF78A
:101990007DFF23893A4631462846FFF74AFFE18812
:1019A0002846FFF739FF13E02389A288618828467B
:1019B000FFF73FFFE1882846FFF72EFF23893A46CD
:1019C00031462846FFF76BFFE1882846FFF75EFFA8
:1019D000BDE8F0810146486B70470146886B70474F
:1019E0000146C86B70470146086C70470A884B88EF
:1019F0001A438B881A43CB881A430B891A434B89A5
:101A00001A438B891A43A0F84420704700210180B3
:101A100041808180C180018141818181704731B1E4
:101A2000B0F8442042F40042A0F8442005E0B0F8A9
:101A30004420C2F30E02A0F84420704721B18288EE
:101A400042F00402828004E082884FF6FB731A4061
:101A50008280704721B1828842F00102828004E0D6
:101A600082884FF6FE731A40828070471AB18389CC
:101A70000B43838102E083898B438381704781829A
:101A8000704702460020138A0B400BB1012000E092
:101A900000207047CA430282704730B502460020DA
:101AA00000230024158A05EA0103958905EA01044B
:101AB00013B10CB1012000E0002030BDCA43028206
:101AC000704741EA0203A0F8483070471AB1838991
:101AD0000B43838102E083898B438381704721B16B
:101AE000828842F00802828004E082884FF6F77311
:101AF0001A408280704701894FF6F87211400181C7
:101B000070470A46002101894FF68F73194011432F
:101B10000181704730B504460D4629462046FFF73F
:101B2000F0FF208940F00700208130BD2DE9F04111
:101B300004460D4616461F46602D06D13B4601223F
:101B400031462046FFF775FE05E03B46012231464F
:101B50002046FFF7A4FE29462046FFF7D2FF208942
:101B600040F007002081BDE8F08130B50C4600212F
:101B70000189C9B24FF6FF7505EA032515432543D0
:101B80002943018130BD2DE9F04105460E46174637
:101B90009846002443463A4631462846FFF7E5FF7B
:101BA0002C894FF6F870044044F007044FF68F700C
:101BB000044044F070042C81BDE8F081F0B5044687
:101BC0000D4616461F463B46324629462046FFF73D
:101BD000CCFF208940F480402081F0BD82884FF600
:101BE0008F731A40828082880A43828070470289FC
:101BF0004FF6F8731A40028102890A430281704746
:101C000002894FF67F731A40028102890A430281DA
:101C10007047F0B50C4615461E46002100220023F1
:101C20000189028B038C4FF6F877394021434FF638
:101C3000FC473A4040F201173A434FF6DD773B400C
:101C40004FF6FF7707EA06172F433B4301810283D4
:101C50000384F0BD21B1828842F08002828004E0DA
:101C600082884FF67F731A4082807047A0F8501028
:101C700070470000FA48006840F00100F849086029
:101C80000020F74908310860F5480068F549084028
:101C9000F3490860F448091D0860081F006820F433
:101CA0008020091F08600020ED490C310860704752
:101CB0000021EB4A921C117011460870704710B554
:101CC00001460022002300204A11012A02D1E44CDF
:101CD000236808E0022A03D1E14C7034236802E053
:101CE000DF4C7434236801F01F02012494401C402F
:101CF0000CB1012000E0002010BD38B5002000909C
:101D00000024002500BF3120FFF7D9FF05460098C9
:101D1000401C00900098B0F5A06F01D0002DF2D0CB
:101D20003120FFF7CCFF08B1012400E00024204659
:101D300038BD01460020CA4A106820F0F80040EA89
:101D4000C10010607047C949086070470021C44A4B
:101D5000703211701170012802D004280AD104E0F9
:101D60000121BF4A7032117005E00521BC4A703272
:101D7000117000E000BF00BF7047BD4908607047A8
:101D800070B5049C41EA82150126C6EB530645EA6C
:101D90000645054345EA0465B14E361D356070BD04
:101DA000B24908667047820142EA0172AC4B843343
:101DB0001A607047AD4988667047AC49C86470477F
:101DC00002460020A64B0833186820F0EC6042EA77
:101DD00001031843A24B08331860704702460020E5
:101DE0009F4B0833186820F0784042EA01031843FB
:101DF0009B4B08331860704701460020984A083210
:101E0000106820F0030008431060704794480830C1
:101E1000006800F00C00704701460020904A08322C
:101E2000106820F0F0000843106070470146002061
:101E30008B4A0832106820F4E05008431060704765
:101E400001460020864A0832106820F4604040EACB
:101E5000C10010607047F0B5002100220024022567
:101E6000002602237E4F08373F6807F00C0121B19E
:101E7000042905D0082937D105E07E4F076036E0F8
:101E80007D4F076033E0764F3F1D3F68C7F38056B4
:101E9000734F3F1D3F6807F03F036EB1764FB7FBAE
:101EA000F3F7DFF8BCC10CF1040CDCF800C0CCF394
:101EB000881C07FB0CF40CE06E4FB7FBF3F7DFF860
:101EC000A0C10CF1040CDCF800C0CCF3881C07FBAB
:101ED0000CF4634F3F1D3F68C7F301477F1C7D0033
:101EE000B4FBF5F7076002E0624F076000BF00BF78
:101EF0005B4F08373F6807F0F00109095F4F7A5CD4
:101F00000768D7404760564F08373F6807F4E051ED
:101F1000890A5A4F7A5C4768D7408760504F083724
:101F20003F6807F46041490B544F7A5C4768D740DB
:101F3000C760F0BD002100F44072B2F5407F0AD1C5
:101F4000474A0832116821F4F8114D4A0240114302
:101F5000434A08321160424A70321268C0F30B03E0
:101F60001A433F4B70331A60704741494439086047
:101F700070473F49403908607047424908607047E0
:101F800039B1374A303212680243354B30331A6068
:101F900006E0334A303212688243314B30331A60E4
:101FA000704739B12E4A3432126802432C4B343315
:101FB0001A6006E02A4A343212688243284B3433CE
:101FC0001A60704739B1264A383212680243244BEE
:101FD00038331A6006E0224A383212688243204BB6
:101FE00038331A60704739B11D4A403212680243D3
:101FF0001B4B40331A6006E0194A40321268824394
:10200000174B40331A60704739B1154A4432126891
:102010000243134B44331A6006E0114A44321268FB
:1020200082430F4B44331A60704739B10C4A103267
:10203000126802430A4B10331A6006E0084A103255
:1020400012688243064B10331A607047E1B1044AAC
:10205000143212680243024B14331A6019E0000074
:1020600000380240FFFFF6FE103000240000474217
:10207000800E47420024F400001BB7003600002009
:10208000FFFCFF0F5C0147425B4A126882435A4BD8
:102090001A60704739B1584A121D12680243564BF4
:1020A0001B1D1A6006E0544A121D12688243524BEF
:1020B0001B1D1A60704739B14F4A0C321268024337
:1020C0004D4B0C331A6006E04B4A0C3212688243C7
:1020D000494B0C331A60704739B1474A10321268C5
:1020E0000243454B10331A6006E0434A103212682F
:1020F0008243414B10331A60704739B13E4A3C323B
:10210000126802433C4B3C331A6006E03A4A3C32C8
:1021100012688243384B3C331A60704739B1364AF3
:10212000403212680243344B40331A6006E0324AB0
:10213000403212688243304B40331A60704739B1E5
:102140002D4A4432126802432B4B44331A6006E096
:10215000294A443212688243274B44331A6070473D
:1021600039B1254A4C3212680243234B4C331A6072
:1021700006E0214A4C32126882431F4B4C331A60EE
:10218000704739B11C4A5032126802431A4B50331F
:102190001A6006E0184A503212688243164B5033D8
:1021A0001A60704739B1144AD21F12780243124B99
:1021B000DB1F1A7006E0104AD21F127882430E4BC2
:1021C000DB1F1A7070470C486030006840F0807068
:1021D000094960310860704701460020064A083A04
:1021E00012680A400AB1012000E00020704702494D
:1021F000891F0870704700001438024010B504466B
:102200008C48844208D101210846FFF70EFF0021C7
:102210000120FFF70AFF5EE08748844208D10121D0
:102220000220FFF702FF00210220FFF7FEFE52E02E
:102230008248844208D101210420FFF7F6FE0021E4
:102240000420FFF7F2FE46E07D48844208D10121D8
:102250000820FFF7EAFE00210820FFF7E6FE3AE03B
:102260007848844208D101211020FFF7DEFE0021CA
:102270001020FFF7DAFE2EE07348844208D10121D6
:102280002020FFF7D2FE00212020FFF7CEFE22E023
:102290006E48844208D101214020FFF7C6FE00218C
:1022A0004020FFF7C2FE16E06948844208D10121B0
:1022B0008020FFF7BAFE00218020FFF7B6FE0AE07B
:1022C0006448844207D101218015FFF7AEFE00214A
:1022D000A015FFF7AAFE10BDF0B50A4600210023A5
:1022E000002400BF3DE0012505FA01F3156805EA69
:1022F00003049C4234D105684F000326BE40B54319
:10230000056015794E00B5400668354305601579BE
:10231000012D02D01579022D16D185684F000326B4
:10232000BE40B543856055794E00B540866835435B
:102330008560456801268E40B543456045689679BD
:102340008E40B6B235434560C5684F000326BE4097
:10235000B543C560D5794E00B540C6683543C56004
:10236000491C1029BFD3F0BD4FF6FF710160002159
:10237000017141718171C171704708B54FF48032AC
:102380000092009A0A430092009AC261C161009AC9
:10239000C261C2690092C269009208BD0246002073
:1023A00013690B400BB1012000E00020704701468B
:1023B000086980B270470246002053690B400BB198
:1023C000012000E0002070470146486980B2704754
:1023D00001837047418370470AB1018300E0418364
:1023E00070474161704742694A4042617047F0B5A9
:1023F000002300244D07ED0E02FA05F3CE1000F184
:10240000200555F826504E07F70E0F26BE40B5435F
:10241000CF1000F1200646F82750CE1000F120051D
:1024200055F8265045EA0304CE1000F1200545F882
:102430002640F0BD000002400004024000080240B7
:10244000000C02400010024000140240001802403C
:10245000001C02400020024010B50446F7488442A8
:1024600008D101211020FFF737FE00211020FFF7CF
:1024700033FE3EE0F248844209D101214804FFF7CF
:102480001AFE00214FF40030FFF715FE31E0ED4851
:10249000844209D101218804FFF70DFE00214FF489
:1024A0008020FFF708FE24E0E748844209D101219B
:1024B000C804FFF700FE00214FF40020FFF7FBFDEA
:1024C00017E0E248844209D101210805FFF7F3FD36
:1024D00000214FF48010FFF7EEFD0AE0DC48844253
:1024E00007D101212020FFF7F7FD00212020FFF771
:1024F000F3FD10BD2DE9FF4705460E460024A14619
:1025000000BFA046B08900B100BF2C8A24F440541B
:10251000F08804432C82AC8941F20C608443B0887B
:1025200031890843718908430443AC81AC8A24F49F
:102530004074B0890443AC826846FFF78CFCBF4806
:10254000854202D0C248854202D1DDF80C9001E0FC
:10255000DDF80890A88900F4004040B109EBC900FB
:1025600000EB091031684900B0FBF1F707E009EB17
:10257000C90000EB091031688900B0FBF1F7642055
:10258000B7FBF0F004012009642101FB1078A88951
:1025900000F4004040B1322000EBC800B0FBF1F085
:1025A00000F00700044308E0322000EB081064212B
:1025B000B0FBF1F000F00F0004432C81BDE8FF8771
:1025C0004FF41651016000218180C18001810C21EE
:1025D000418100218181704710B502460020108A98
:1025E00020F470600B884C8823438C882343CC886C
:1025F00023431843108210BD002101804180818057
:10260000C180704721B1828942F40052828104E086
:1026100082894DF6FF731A4082817047028B02F463
:102620007F420283028B0A430283704721B1828971
:1026300042F40042828103E08289C2F30E02828169
:10264000704721B1828A42F40062828204E0828A69
:102650004FF2FF731A4082827047C1F308028280F2
:10266000704701468888C0F308007047028A4FF619
:10267000F0731A400282028A0A430282704721B133
:10268000828942F00202828104E082894FF6FD7362
:102690001A408281704782894FF2FF731A4082810B
:1026A00082890A4382817047028A4FF6DF731A409B
:1026B0000282028A0A430282704721B1028A42F4EE
:1026C0008042028204E0028A4BF6FF731A400282C3
:1026D0007047818941F001018181704721B1828A6F
:1026E00042F00802828204E0828A4FF6F7731A40B1
:1026F00082827047028BD2B20283028B42EA0122AD
:102700000283704721B1828A42F02002828204E073
:10271000828A4FF6DF731A408282704721B1828A23
:1027200042F01002828204E0828A4FF6EF731A4070
:1027300082827047828A4FF6FB731A408282828AB5
:102740000A438282704721B1828A42F00202828269
:1027500004E0828A4FF6FD731A40828270471AB1F4
:10276000838A0B43838202E0838A8B438382704790
:10277000F0B50346002400260025002040F66A1725
:10278000B94200D100BF1846C1F3421401F01F0640
:10279000012707FA06F5012C01D10C3004E0022CC8
:1027A00001D1103000E014301AB107682F430760E0
:1027B00002E00768AF430760F0BD02460020B1F5B4
:1027C000007F00D100BF13880B400BB1012000E057
:1027D0000020704701F40072B2F5007F00D100BF05
:1027E000CA430280704770B50246002400230025CA
:1027F000002040F66A16B14200D100BFC1F3421575
:1028000001F01F03012606FA03F3012D02D1968978
:10281000334006E0022D02D1168A334001E0968A49
:1028200033400C12012606FA04F41688344013B122
:102830000CB1012000E0002070BD0000001001403C
:102840000044004000480040004C00400050004060
:102850000014014010B50022002340F66A14A14282
:1028600000D100BF0A1201249440A3B2DC430480CB
:1028700010BD00000648804706480047FEE7FEE717
:10288000FEE7FEE7FEE7FEE7FEE7FEE7FEE7FEE720
:1028900075290008890100080CB5002001900090FE
:1028A0007648006840F480307449086000BF73487F
:1028B000006800F4003000900198401C01900098DE
:1028C00018B90198B0F5A06FF1D16C48006800F418
:1028D000003010B10120009001E00020009000982D
:1028E000012846D165484030006840F08050634977
:1028F000403108606248006840F4804060490860E8
:102900005E48083000685D49083108600846006884
:1029100040F4004008600846006840F4A050086099
:102920005848091F0860081F006840F08070091FA0
:10293000086000BF5148006800F000700028F9D01E
:1029400040F20560504908604C480830006820F0AB
:1029500003004A49083108600846006840F0020058
:10296000086000BF45480830006800F00C000828E7
:10297000F8D10CBD10B54548006840F470004349DB
:1029800008603E48006840F001003C4908600020B3
:102990003A4908310860394800683D4908403749DC
:1029A00008603C48091D0860081F006820F480206A
:1029B000091F0860002031490C310860FFF76CFFE7
:1029C0004FF0006031498039086010BD70B50020BB
:1029D0000022022300240221284D08352D6805F02D
:1029E0000C0020B1042806D0082834D107E02A4D75
:1029F0002A4E356033E02A4D284E35602FE01F4DBA
:102A00002D1D2D68C5F380541C4D2D1D2D6805F01E
:102A10003F0154B1224DB5FBF1F5184E361D366815
:102A2000C6F3881605FB06F209E01B4DB5FBF1F570
:102A3000124E361D3668C6F3881605FB06F20F4D9A
:102A40002D1D2D68C5F301456D1C6B00B2FBF3F520
:102A5000124E356003E0104D104E356000BF00BFD0
:102A6000064D08352D68C5F303150E4E705D0B4DF0
:102A70002D68C540094E356070BD00000038024029
:102A8000007000400C5A4008003C024088ED00E015
:102A9000FFFFF6FE103000240024F4004800002060
:102AA000001BB7004C00002040EA01039B0703D045
:102AB00009E008C9121F08C0042AFAD203E011F87D
:102AC000013B00F8013B521EF9D27047421C10F83E
:102AD000011B0029FBD1801A704710B5002200E0CD
:102AE000521C835C8C5CA34201D1002BF8D1D8B27C
:102AF000E1B2401A10BD10B54843044600F050FF43
:102B0000002805D00021002C02D0641E0155FAE7F0
:102B100010BD30B50B46014600202022012409E0FB
:102B200021FA02F59D4205D303FA02F5491B04FA86
:102B300002F52844151EA2F10102F1DC30BD2DE999
:102B4000F05F0546002092469B4688460646814631
:102B500040241BE0284641464746224600F0F9F94A
:102B600053465A46C01A914110D311461846224680
:102B700000F0E0F92D1A67EB01084F4622460120CC
:102B8000002100F0D7F917EB00094E41201EA4F1F7
:102B90000104DFDC484631462A464346BDE8F09F43
:102BA0002DE9FE4F804681EA0300C00F0C460090DD
:102BB00021F0004123F00045B8EB0200A94105D205
:102BC0004046214690461C460B46024623F00040F4
:102BD000104347D0270DC7F30A00C3F30A510290F0
:102BE000401A019040286BDAC3F3130040F4801BB5
:102BF0000098924620B10023D2EB030A63EB0B0B43
:102C000001985946C0F14002504600F093F906463B
:102C10000D4650465946019A00F0ABF910EB0800FA
:102C20006141002487EA115284EAE7731A4340D0D5
:102C3000009A62B3019A012A4FEA075215DC001B81
:102C400061EB02014FF0004202EA0752CDE9004277
:102C5000001C41F5801132462B4600F0ABF903B061
:102C6000BDE8F08F40462146F9E7001B61EB020109
:102C7000001C41F5801300185B412018A2F50017D5
:102C800047EB030140EAD570B6196D4111E06D08BC
:102C90004FEA360645EAC0754FEA0752001B61EB62
:102CA0000201001C41F5801149084FEA300000196B
:102CB000514132462B4603B0BDE8F04F00F06BB9EE
:102CC0000098012240000023D0EB020263EBE07386
:102CD000009821464FEAE074B8EB000061EB040174
:102CE000E9E783F000435BE781F0004158E72DE915
:102CF000FE4F81EA030404F0004421F000410094F7
:102D00004FF0000B23F0004350EA01045ED052EA7A
:102D100003045BD0C3F30A54C1F30A552C44A4F254
:102D2000F3340194A0FB0254C1F3130141F4801168
:102D3000C3F3130343F4801301FB024400FB034E6F
:102D4000840A970A44EA815447EA8357A4FB076838
:102D500002958D0A05FB07854FEA932C04FB0C5462
:102D60002705029D4FEA065847EA1637B5EB0805D6
:102D70006EEB070C870E920E47EA811742EA831228
:102D8000A7FB0201B6EB0B0164EB00042B0D43EA39
:102D90000C335E1844EB1C50DA465146E7FB020147
:102DA000C5F313044FEA0B3343EA14534FEA0432DA
:102DB000019C43EA0603A4F10C040294009CCDE9B3
:102DC00000B400F0F7F803B0BDE8F08F0020014632
:102DD000F9E72DE9F04D81EA030404F0004B21F0FE
:102DE000004514464FF0000A23F0004150EA050266
:102DF00020D054EA01021DD0C5F30A570246C5F39C
:102E00001303C1F31300C1F30A5640F4801543F4D1
:102E10008013A7EB0608101BD64608F2FD3873EBAB
:102E2000050002D308F1010801E092185B41B8F1F6
:102E3000000F03DA00200146BDE8F08D00204FF4BA
:102E40008011064684460EE0171B73EB050705D379
:102E5000121B63EB050306434CEA010C49084FEAD9
:102E6000300092185B4150EA0107EDD152EA0300AD
:102E700012D082EA040083EA0501084305D0101B42
:102E8000AB4106D20122002306E000224FF00043AE
:102E900002E06FF0010253101AEB06004CEB0851F0
:102EA00010EB0A0041EB0B01BDE8F04D00F073B8E8
:102EB000C1F30A52C1F3130140F2FF3341F4801110
:102EC0009A4202DA00200146704740F233439A42A8
:102ED000A2F2334202DC524200F03BB800F02AB8C2
:102EE00030B5041E71F1000404DB4FF00044404291
:102EF00064EB0101141E73F1000405DB1C464FF066
:102F00000043524263EB0403994208BF904230BD34
:102F1000064C074D06E0E06840F0010394E8070026
:102F200098471034AC42F6D3FDF732F9483A00081E
:102F3000683A0008202A04DB203A00FA02F1002057
:102F400070479140C2F1200320FA03F319439040E7
:102F50007047202A04DB203A21FA02F00021704752
:102F600021FA02F3D040C2F12002914008431946F1
:102F70007047202A06DBCB17203A41FA02F043EAD9
:102F8000E07306E041FA02F3D040C2F12002914022
:102F900008431946704710B5141E73F1000408DA8F
:102FA000401C41F1000192185B411A4301D120F00D
:102FB000010010BD2DE9F04D92469B4611B1B1FACA
:102FC00081F202E0B0FA80F220329046FFF7B2FFC1
:102FD00004460F4640EA0A0041EA0B0153465A46AE
:102FE000084313D0114653EA010019D0C8F140023A
:102FF0005046FFF7AEFF05460E465046594642463C
:10300000FFF798FF084305D0012004E02046394629
:10301000BDE8F08D0020054346EAE0762C433743B7
:103020000A986305E40AA0EB08000022FD0A44EABE
:1030300047540A3002D500200146E9E7010510197E
:103040006941DDE9084500196941BDE8F04DA2E795
:1030500037B514460846064B6A46214600F0DCF8B0
:1030600004466946002000F06EFC20463EBD00008C
:103070004739000802E008C8121F08C1002AFAD127
:1030800070477047002001E001C1121F002AFBD1E8
:10309000704700002DE9FF5F82B00021DDE90430B8
:1030A000020DDDF840B0034318D044F61050A2F2F0
:1030B000FF3242431514119801281FD0A5EB0B00D5
:1030C000401C5FEA000A4FF000064E4FDFF83891CF
:1030D000B046504615D5CAF1000413E011980124FA
:1030E0004AA3012801D16FEA0B010298119AC0E9A5
:1030F0000031C0E9024206B0BDE8F09FCBF100000C
:10310000DFE704460021404A491842EB0450CDE96C
:10311000001012E0E00707D032463B4640464946E1
:10312000FFF7E5FD8046894632463B461046194684
:10313000FFF7DDFD06460F466410002CEAD1DDE9FD
:103140000401DDE90023BAF1000F06DAFFF7CFFD35
:1031500042464B46FFF7CBFD05E0FFF73AFE4246FD
:103160004B46FFF736FE04460E460022284BFFF77B
:10317000B7FE03D84FF0FF30014607E00022254B91
:1031800020463146FFF70CFDFFF792FE102409E0C0
:10319000002C0ADB0A220023FFF7D1FC039B30320C
:1031A0001A55641E50EA0102F2D1641C039AC4F15C
:1031B00011031444119A012A03D0012208430DD1AE
:1031C0000AE0084304D000204FF0110B119072E781
:1031D000A3EB0B056D1E0DE05B4504DD4FF0000217
:1031E00005F1010504E003DA4FF00002A5F1010545
:1031F000002AECD002981199C0E90231C0E90045DB
:1032000079E70000000014400000F03F30000000AB
:103210000000F0430000E03F2DE9FF4F95B09B46D2
:103220008946064600250FE2252877D10024274647
:10323000F84A0121059400E0044316F8013F203BC1
:1032400001FA03F01042F7D130782A2811D06FF03C
:103250002F033078A0F13002092A16D8059A44F0DD
:10326000020402EB820203EB42021044761C05903A
:10327000EFE759F8042B0592002A03DA504244F490
:103280000054059044F00204761C30782E2816D1A4
:1032900016F8010F44F004042A280DD06FF02F0215
:1032A0003078A0F13003092B09D807EB870302EB34
:1032B0004303C718761CF3E759F8047B761C307873
:1032C0006C280FD006DC4C2817D068280DD06A284F
:1032D00014D104E0742810D07A280FD10DE044F402
:1032E00000140AE044F4801401E044F440147278BD
:1032F000824202D104F58014761C761C3078662850
:103300000BD013DC582877D009DC002875D045286D
:10331000F6D04628F4D047281AD19DE118E063285A
:1033200035D0642879D0652812D195E1702873D002
:1033300008DC6728F1D069286FD06E280DD06F287F
:1033400006D1B5E073282CD0752875D0782874D0B4
:103350005A46179990476D1C75E1C4F30250022834
:1033600009D003280DD0D9F8001004280DD00D6025
:1033700009F1040967E1D9F80010EA17C1E9005220
:10338000F6E7D9F800100D80F2E70D70F0E719F8B4
:10339000041B8DF8001000208DF80100EA46012082
:1033A00003E059F804AB4FF0FF3061074FF0000124
:1033B00002D40DE008F101018846B9420FDA8045D8
:1033C000F8DB1AF808100029F4D108E008F101012F
:1033D00088468142FADB1AF808100029F6D10598D0
:1033E0005B46A0EB080721463846179A00F094FA8E
:1033F000284400EB080507E04DE029E10DE01AF84C
:10340000010B5A4617999047B8F10108F7D25B466D
:1034100021463846179A13E142E00A220092C4F38B
:1034200002524FF0000A022A08D059F804CB032AAE
:103430004FEAEC710AD00DE029E02AE009F107011A
:1034400021F00702F2E802C1914609E00FFA8CFC74
:103450004FEAEC71042A03D14FFA8CFC4FEAEC716D
:10346000002907DA0A460021DCF1000C61EB0201B9
:103470002D2202E0220504D52B228DF80420012202
:1034800003E0E20701D02022F7E7904659E00A2145
:1034900002E010220DE010214FF0000A00910BE035
:1034A00010224FF0000A44F004040827009203E0C1
:1034B00008224FF0000A0092C4F30252022A05D0FB
:1034C00059F804CB0021032A08D009E009F10701CB
:1034D00021F00702F2E802C1914605E01FFA8CFCD8
:1034E000042A01D10CF0FF0C4FF00008220728D568
:1034F000702806D0009B83F0100353EA0A0305D01E
:103500000EE040228DF80420012208E05CEA01026E
:1035100006D030228DF804208DF805000222904656
:10352000009B83F0080353EA0A030AD15CEA010214
:1035300001D1620705D530228DF804204FF0010833
:103540007F1E582804D034A003900EA802900DE0EE
:1035500036A0F9E753466046009AFFF7F0FA844632
:103560000398825C0298401E029002705CEA01009F
:10357000F0D1029806A9081A00F1200A600702D5C6
:1035800024F4803400E00127574502DDA7EB0A0050
:1035900000E0002000EB0A01009005984144401A29
:1035A0000590E00306D45B462146179A059800F083
:1035B000B3F90544002706E001A85A46C05D1799F3
:1035C00090476D1C7F1C4745F6DBE0030CD55B463E
:1035D0002146179A059800F09FF9054404E0302031
:1035E0005A46179990476D1C0099481E0090002973
:1035F000F5DC08E0029802995A460078491C0291CD
:10360000179990476D1CBAF10001AAF1010AF1DC8B
:1036100065E1000009280100303132333435363796
:10362000383961626364656600000000303132330E
:1036300034353637383941424344454600000000AE
:1036400000F058F90544761C307800287FF4ECAD82
:1036500019B02846BDE8F08F620700D4062709F1AB
:10366000070222F0070CFCE80223E14603F00048C1
:103670005FEA080C02D00FF2702C0DE05FEA045CE8
:1036800002D50FF2682C07E05FEAC47C02D00FF28B
:10369000602C01E0AFF2700C4FF0FF3823F00043D4
:1036A000CDF850C065280CD006DC452809D0462846
:1036B0001DD047283DD13DE0662818D067287ED12F
:1036C00038E00021112F01DB112000E0781CCDE94A
:1036D000000106A90EA8FFF7DDFCDDE90F010E9A37
:1036E00003910021009207F1010A04914DE04FF08F
:1036F00000400097CDE9011006A90EA8FFF7CAFC0B
:10370000DDE90F0203920E9B11990022DDF80CA057
:103710000093049211B9791C00EB010AB7EB0A007F
:1037200004D4C0F1FF3007F1010A0490AAEB0700AE
:10373000019044E0012F00DA01270021112F01DD63
:10374000112000E03846CDE9000106A90EA8FFF7D8
:10375000A1FCDDE90F010E9A039100210491009272
:10376000BA4621070CD40399514500DA8A46BAF1CA
:10377000010F05DD009AAAF10101515C302908D042
:10378000B84202DA10F1040F06DA0121CDE9011086
:1037900015E0AAF10101E9E7002805DC04990144DC
:1037A0000491AAEB000102E0411C514500DD8A466C
:1037B0000499401A401C01904FF0004002902007ED
:1037C00004D40198504501DBCDF8048000208DF829
:1037D0004F0002980DF14F07B0F1004F25D02B207C
:1037E0000E9002984FF0020800280CDA4042029036
:1037F0002D200E9007E00A210298FFF78AF9303158
:10380000029007F8011DB8F10001A8F10108F2DCEF
:1038100002980028EFD1791E0E980870307800F0D9
:10382000200040F0450007F8020D12A8C01B00F16F
:1038300007081498007800B1012000EB0A010198F4
:1038400001EBE07105984144401A401E0590E003E9
:1038500006D45B462146179A059800F05DF80544AA
:103860001498007818B15A46179990476D1CE003D8
:1038700024D55B462146179A059800F04DF805447B
:103880001CE00498002807DBDDE90301884203DD22
:103890000098405C179901E0179930205A469047EC
:1038A000049805F10105401C04900198401E019008
:1038B00004D12E205A46179990476D1CBAF1000189
:1038C000AAF1010ADDDC05E017F8010B5A46179949
:1038D00090476D1CB8F10001A8F10108F4DC5B46CB
:1038E0002146179A0598ABE62D0000002B0000003A
:1038F000200000002DE9F041044600251E46174631
:10390000880404D405E039462020B0476D1C641EAD
:10391000F9D52846BDE8F0812DE9F041044600259F
:103920001E469046C80301D5302700E020278804B2
:1039300004D505E041463846B0476D1C641EF9D5F4
:103940002846BDE8F0810A68531C0B601070704770
:1039500010B5002821D0114B0022001F196803E088
:10396000814203D80A4649680029F9D152B1136847
:10397000841A9C4204D1006818441060104602E08A
:10398000506000E0186039B102680B1A934203D10D
:103990000B681A4402604968416010BD5C00002059
:1039A000F0B50B30154D20F007010024144A0FE04C
:1039B00003688B420BD38B4205D95E1A43184768C4
:1039C000C3E9006700E04368136002C004E0021D21
:1039D00010680028ECD12046002802D1286808B1E0
:1039E0000020F0BD064A07481060074A121A22F06C
:1039F0000702C0E9002401202860D7E7600000200A
:103A00005C000020F4040020F00600204C4F4144EC
:103A10005F535441525400004F6E65506172616DA6
:103A200000000000504944000000000000000000B9
:103A3000436173636164655049440000547261637B
:103A40006B42617200000000683A0008000000202C
:103A50006400000074300008CC3A000864000020C4
:103A60008C0A0000843000080000C84200000046B4
:103A700000007A4500000000000000000000000087
:103A800000000000C9040008C30500080F06000874
:103A9000AF060008A10700080000000000000000B9
:103AA00000000102030401020304060708090000E4
:103AB0000095BA0A000000000000000001020304A3
:0C3AC000060708090000000000000000DC
:040000050800018965
:00000001FF
